:020000040000FA
:0400000034EF0CF0DD
:10060000003F065B4F666D7D077F6F777C395E79B3
:100610007100000E536E000E526E20EE98F010EE38
:1006200027F00E0EDBCFE3FFE806FCE220EEA7F09A
:1006300010EE36F00B0EDBCFE3FFE806FCE27BC0EA
:1006400054F07CC055F07DC056F020EEBBF010EEAB
:1006500042F0070EDBCFE3FFE806FCE220EE80F07D
:1006600010EE0FF0170EDBCFE3FFE806FCE220EE02
:10067000B3F010EE4AF0070EDBCFE3FFE806FCE232
:10068000010E946E000E956EC6EC0BF0A9EC0DF009
:10069000AEEC0DF0000E6E6E000E6D6E270E6D242A
:1006A000D96E000E6E20DA6EDF5019EC0DF06D4A37
:1006B0006E2A6EBE65EF03F06E5009E10F0E6D5CA1
:1006C000D8A065EF03F067EF03F04EEF03F010ECF6
:1006D0000AF0C00E87EC0BF0000E806E000E836EE9
:1006E000270E046E100E036E57C001F058C002F0C2
:1006F0008CEC0AF001C009F002C00AF0000E0C6E8A
:10070000060E0B6EEEEC0AF009500A10D8A48BEF1F
:1007100003F08DEF03F098EF03F0662A090E66648C
:1007200094EF03F096EF03F098EF03F0000E666E7F
:10073000ABEC08F0A4EC0DF06950011809E16A5027
:100740000218D8B4A6EF03F0A8EF03F0BEEF05F04F
:10075000A4EC0DF001C069F002C06AF0800E87ECD5
:100760000BF069A6B6EF03F0B8EF03F0FDEF03F06E
:10077000010E87EC0BF0000E6E6E000E6D6E4A0ED1
:100780006D24D96E000E6E20DA6EDF5019EC0DF07C
:100790006D4A6E2A6EBED6EF03F06E5009E1080E68
:1007A0006D5CD8A0D6EF03F0D8EF03F0BFEF03F0F5
:1007B000800E87EC0BF0C00E87EC0BF0000E6C6E19
:1007C000000E6B6E10EC0AF0C30E6B24D96E000E97
:1007D0006C20DA6EDF5019EC0DF06B4A6C2A6CBE9F
:1007E000FBEF03F06C5009E1090E6B5CD8A0FBEF46
:1007F00003F0FDEF03F0E2EF03F069AA02EF04F06B
:1008000004EF04F00AEF04F0000E026E140E016E05
:1008100002EC0CF069AC0FEF04F011EF04F055EFAF
:1008200004F0000E026E020E016E000E046E010E48
:10083000036E5DEC06F0000E026E030E016E000EFC
:10084000046E010E036E5DEC06F0000E026E040EE7
:10085000016E000E046E010E036E5DEC06F0000EDC
:10086000026E050E016E000E046E010E036E5DEC4D
:1008700006F0010E87EC0BF06450300F19EC0DF010
:100880006250300F19EC0DF03A0E19EC0DF060507B
:10089000300F19EC0DF05E50300F19EC0DF0000E1A
:1008A000816E000E806E000E836E69AE5AEF04F00A
:1008B0005CEF04F0CBEF04F0010E87EC0BF0000EC0
:1008C0005C6E000E5B6E000E656E000E646E000EB8
:1008D000636E000E626E8168030E026EE80E016E9A
:1008E00002EC0CF0000E6E6E000E6D6E0F0E6D249D
:1008F000D96E000E6E20DA6EDF5019EC0DF06D4AE5
:100900006E2A6EBE8DEF04F06E5009E1180E6D5C1C
:10091000D8A08DEF04F08FEF04F076EF04F0EEEC4A
:100920000CF07FEC0DF0000E5A6E000E596E5ABEA0
:10093000A3EF04F05A5009E1030E595CD8A0A3EFCD
:1009400004F0A5EF04F0A7EF04F0CBEF04F0000EE5
:100950006C6E010E6B6E94826BC083FF000E026E94
:10096000640E016E02EC0CF0D8906B346B6E6C343C
:100970006C6E6CBEC6EF04F06C5006E16B04D8B030
:10098000C4EF04F0C6EF04F0ABEF04F09492594AC0
:100990005A2A97EF04F069A4D0EF04F0D2EF04F0E4
:1009A0003CEF05F0010E87EC0BF0000E6E6E000EB2
:1009B0006D6E360E6D24D96E000E6E20DA6EDF502D
:1009C00019EC0DF06D4A6E2A6EBEF0EF04F06E5019
:1009D00009E10C0E6D5CD8A0F0EF04F0F2EF04F02A
:1009E000D9EF04F0C00E87EC0BF0310E19EC0DF0CE
:1009F000000E046E030E036E66C001F0026A8CECFA
:100A00000AF001C009F002C00AF0000E0C6E0A0ED6
:100A10000B6EEEEC0AF00950300F19EC0DF00F0ED2
:100A20006624096E0A6A000E0A22000E0C6E0A0E77
:100A30000B6EEEEC0AF00950300F19EC0DF0000EC1
:100A40006C6E000E6B6E540E6B24D96E000E6C2013
:100A5000DA6EDF5019EC0DF06B4A6C2A6CBE3AEF7F
:100A600005F06C5009E1030E6B5CD8A03AEF05F07D
:100A70003CEF05F023EF05F06AA641EF05F043EFE8
:100A800005F0BEEF05F0010E87EC0BF0000E6E6E68
:100A9000000E6D6E420E6D24D96E000E6E20DA6E61
:100AA000DF5019EC0DF06D4A6E2A6EBE61EF05F055
:100AB0006E5009E1080E6D5CD8A061EF05F063EFA0
:100AC00005F04AEF05F0C00E87EC0BF0030E046E44
:100AD000E80E036E67C001F068C002F08CEC0AF00B
:100AE00001C009F002C00AF0000E0C6E0A0E0B6E77
:100AF000EEEC0AF00950300F19EC0DF0000E046E08
:100B0000640E036E67C001F068C002F08CEC0AF05E
:100B100001C009F002C00AF0000E0C6E0A0E0B6E46
:100B2000EEEC0AF00950300F19EC0DF0000E046ED7
:100B30000A0E036E67C001F068C002F08CEC0AF088
:100B400001C009F002C00AF0000E0C6E0A0E0B6E16
:100B5000EEEC0AF00950300F19EC0DF067C009F007
:100B600068C00AF0000E0C6E0A0E0B6EEEEC0AF076
:100B70000950300F19EC0DF0674A682A090E5E180B
:100B80005F10D8A4C6EF05F0C8EF05F004EF06F03B
:100B9000050E60186110D8A4D0EF05F0D2EF05F073
:100BA00004EF06F0624A632A5C0E6724676E000E4B
:100BB0006820686E000E5C6E000E5B6E63BEEAEF2E
:100BC00005F0635009E10A0E625CD8A0EAEF05F077
:100BD000ECEF05F0F2EF05F0000E636E000E626EB2
:100BE000644A652A65BEFEEF05F0655009E10A0E0C
:100BF000645CD8A0FEEF05F000EF06F004EF06F00D
:100C0000000E656E000E646E5B4A5C2A000E046E78
:100C1000640E036E5BC001F05CC002F08CEC0AF065
:100C200001C009F002C00AF0000E0C6E0A0E0B6E35
:100C3000EEEC0AF009C05EF00AC05FF0030E046E2D
:100C4000E80E036E5BC001F05CC002F08CEC0AF0B1
:100C500001C009F002C00AF0000E0C6E0A0E0B6E05
:100C6000EEEC0AF009C060F00AC061F0030E016EFC
:100C70005E50C2EC0CF0020E016E6050C2EC0CF043
:100C8000010E016E6250C2EC0CF0000E016E645059
:100C9000C2EC0CF068EC09F0000E5D6E5D28D8A483
:100CA00054EF06F056EF06F058EF06F069EF03F048
:100CB0005D2A4EEF06F000EF00F002BE6BEF06F08B
:100CC000025007E1080E015CD8B069EF06F06BEF47
:100CD00006F095EF06F003500410D8B472EF06F05A
:100CE00074EF06F084EF06F001C005F0010E066E09
:100CF000052A7DEF06F0D8900636052E7BEF06F02C
:100D00000650921283EF07F001C005F0010E066E47
:100D1000052A8DEF06F0D8900636052E8BEF06F0EB
:100D20000650FF0A921683EF07F002BEA3EF06F00B
:100D3000025007E1100E015CD8B0A1EF06F0A3EF5E
:100D400006F0D1EF06F003500410D8B4AAEF06F075
:100D5000ACEF06F0BEEF06F001C005F0F80E052678
:100D6000010E066E052AB7EF06F0D8900636052E5E
:100D7000B5EF06F00650931283EF07F001C005F0BF
:100D8000F80E0526010E066E052AC9EF06F0D8906A
:100D90000636052EC7EF06F00650FF0A931683EFBE
:100DA00007F002BEDFEF06F0025007E1180E015C0B
:100DB000D8B0DDEF06F0DFEF06F00DEF07F00350DF
:100DC0000410D8B4E6EF06F0E8EF06F0FAEF06F00C
:100DD00001C005F0F00E0526010E066E052AF3EFA0
:100DE00006F0D8900636052EF1EF06F00650941264
:100DF00083EF07F001C005F0F00E0526010E066E28
:100E0000052A05EF07F0D8900636052E03EF07F008
:100E10000650FF0A941683EF07F002BE1BEF07F09F
:100E2000025007E1200E015CD8B019EF07F01BEF6C
:100E300007F049EF07F003500410D8B422EF07F091
:100E400024EF07F036EF07F001C005F0E80E0526A5
:100E5000010E066E052A2FEF07F0D8900636052EF4
:100E60002DEF07F00650951283EF07F001C005F053
:100E7000E80E0526010E066E052A41EF07F0D89010
:100E80000636052E3FEF07F00650FF0A951683EF52
:100E900007F002BE57EF07F0025007E1280E015C91
:100EA000D8B055EF07F057EF07F083EF07F0035086
:100EB0000410D8B45EEF07F060EF07F072EF07F0B0
:100EC00001C005F0E00E0526010E066E052A6BEF47
:100ED00007F0D8900636052E69EF07F006509612F7
:100EE00083EF07F001C005F0E00E0526010E066E47
:100EF000052A7DEF07F0D8900636052E7BEF07F028
:100F00000650FF0A9616120002BE92EF07F002503A
:100F100007E1080E015CD8B090EF07F092EF07F000
:100F2000BCEF07F003500410D8B499EF07F09BEF23
:100F300007F0ABEF07F001C005F0010E066E052AC1
:100F4000A4EF07F0D8900636052EA2EF07F0065062
:100F50008012AAEF08F001C005F0010E066E052A06
:100F6000B4EF07F0D8900636052EB2EF07F0065022
:100F7000FF0A8016AAEF08F002BECAEF07F002507F
:100F800007E1100E015CD8B0C8EF07F0CAEF07F018
:100F9000F8EF07F0F80E0126FF0E022203500410AE
:100FA000D8B4D5EF07F0D7EF07F0E7EF07F001C0AF
:100FB00005F0010E066E052AE0EF07F0D890063620
:100FC000052EDEEF07F006508112AAEF08F001C0EF
:100FD00005F0010E066E052AF0EF07F0D8900636F0
:100FE000052EEEEF07F00650FF0A8116AAEF08F073
:100FF00002BE06EF08F0025007E1180E015CD8B0FF
:1010000004EF08F006EF08F034EF08F0F00E0126C8
:10101000FF0E022203500410D8B411EF08F013EFB2
:1010200008F023EF08F001C005F0010E066E052A56
:101030001CEF08F0D8900636052E1AEF08F006507F
:101040008212AAEF08F001C005F0010E066E052A13
:101050002CEF08F0D8900636052E2AEF08F006503F
:10106000FF0A8216AAEF08F002BE42EF08F0025013
:1010700007E1200E015CD8B040EF08F042EF08F025
:1010800070EF08F0E80E0126FF0E02220350041054
:10109000D8B44DEF08F04FEF08F05FEF08F001C053
:1010A00005F0010E066E052A58EF08F0D8900636B6
:1010B000052E56EF08F006508312AAEF08F001C083
:1010C00005F0010E066E052A68EF08F0D890063686
:1010D000052E66EF08F00650FF0A8316AAEF08F007
:1010E00002BE7EEF08F0025007E1280E015CD8B086
:1010F0007CEF08F07EEF08F0AAEF08F0E00E012682
:10110000FF0E022203500410D8B489EF08F08BEFD1
:1011100008F09BEF08F001C005F0010E066E052AED
:1011200094EF08F0D8900636052E92EF08F006509E
:101130008412AAEF08F001C005F0010E066E052A20
:10114000A4EF08F0D8900636052EA2EF08F006505E
:10115000FF0A8416120083CF06F00F0E9512000EC0
:101160000A6EF80E93160AC001F0010E026E012AF3
:10117000BCEF08F0D8900236012EBAEF08F002500A
:101180009312070E81120AC001F0010E026E012AAD
:10119000CCEF08F0D8900236012ECAEF08F00250CA
:1011A000FF0A8116000E086E000E076E074A082A15
:1011B00008BEE4EF08F0085009E10A0E075CD8A069
:1011C000E4EF08F0E6EF08F0D6EF08F0000E096E45
:1011D00009C001F0010E026E012AF1EF08F0D8906B
:1011E0000236012EEFEF08F0025083140009D8A454
:1011F000FCEF08F0FEEF08F016EF09F00A50040DBE
:10120000F3500924016E010E026E000E036E012AD6
:101210000DEF09F0D89002360336012E0AEF09F0DF
:10122000025071120350721230EF09F00A50040D8F
:10123000F3500924016E010E026E000E036E012AA6
:1012400025EF09F0D89002360336012E22EF09F07F
:10125000021C046E031C056E0450711605507216B4
:10126000092A030E096437EF09F039EF09F0E8EFB6
:1012700008F00A2A020E0A6440EF09F042EF09F072
:10128000B1EF08F071506F1807E172507018D8A4D0
:101290004CEF09F04EEF09F051EF09F0750657EFEA
:1012A00009F00A0E756E71C06FF072C070F0755063
:1012B000D8A45DEF09F05FEF09F063EF09F06FC0AC
:1012C00073F070C074F006C083FF000E956E1200BC
:1012D000000E956E000E026E020E016E000E046E80
:1012E000000E036E84EC07F0000E026E030E016E1A
:1012F000000E046E000E036E84EC07F0000E026E0A
:10130000040E016E000E046E000E036E84EC07F0F6
:10131000000E026E050E016E000E046E000E036ECE
:1013200084EC07F0000E836EF2EF09F0010E7924D1
:10133000F66EF76A060EF7220800F5CF83FF000E5F
:10134000026E020E016E000E046E010E036E84EC3E
:1013500007F0010E7A6E0FEF0AF0010E7824F66E98
:10136000F76A060EF7220800F5CF83FF000E026E23
:10137000030E016E000E046E010E036E84EC07F086
:10138000020E7A6E0FEF0AF0010E7724F66EF76AFE
:10139000060EF7220800F5CF83FF000E026E040E42
:1013A000016E000E046E010E036E84EC07F0030E56
:1013B0007A6E0FEF0AF0010E7624F66EF76A060ECB
:1013C000F7220800F5CF83FF000E026E050E016EB6
:1013D000000E046E010E036E84EC07F0000E7A6EB0
:1013E0000FEF0AF07A50076E086A0850000AD8B466
:1013F000FCEF09F0EEEF09F00750000AD8B496EFC1
:1014000009F0010AD8B4ADEF09F0030AD8B4C4EF6B
:1014100009F0010AD8B4DBEF09F0EEEF09F0120091
:1014200091EC0DF0D00E94EC0CF0000E94EC0CF05E
:1014300091EC0DF0D10E94EC0CF0010E46EC0BF09B
:101440007F0B0A6E3A0E0001C86F0A5099EC0DF03E
:101450000001C96F0A509FEC0DF00001CA6F000E29
:10146000CB6F010E46EC0BF07F0B0A6E3A0E0001BB
:10147000C56F0A5099EC0DF00001C66F0A509FEC41
:101480000DF00001C76F010E46EC0BF03F0B0A6E2A
:101490000A5099EC0DF00001C36F0A509FEC0DF05B
:1014A0000001C46F010E46EC0BF0010E46EC0BF090
:1014B0003F0B0A6E0A5099EC0DF00001CD6F0A50F7
:1014C0009FEC0DF00001CE6F010E46EC0BF01F0BF0
:1014D0000A6E2F0E0001CF6F0A5099EC0DF000013B
:1014E000D06F0A509FEC0DF00001D16F000E46EC5A
:1014F0000BF00A6E2F0E0001D26F0A5099EC0DF01E
:101500000001D36F0A509FEC0DF00001D46F000E64
:10151000D56F89EC0DF01200000E066E04BE95EF3B
:101520000AF093EF0AF09BEF0AF0036C041ED8B0A8
:10153000042A010E066E02BEA2EF0AF0A0EF0AF026
:10154000A8EF0AF0016C021ED8B0022A010E061A9A
:10155000000E086E000E076E03500410D8B4B3EFEF
:101560000AF0B5EF0AF0DDEF0AF0010E056EBDEFEF
:101570000AF0D89003360436052A04AEC2EF0AF00A
:10158000C4EF0AF0B9EF0AF0D890073608360350D6
:10159000015C04500258D8A0D0EF0AF0D2EF0AF054
:1015A000D7EF0AF00350015E0450025A0780D8902A
:1015B00004320332052EC4EF0AF00650D8B4E3EF2C
:1015C0000AF0E5EF0AF0E9EF0AF0076C081ED8B060
:1015D000082A07C001F008C002F01200000E0E6ECB
:1015E0000ABEF7EF0AF0F5EF0AF0FDEF0AF0096C1A
:1015F0000A1ED8B00A2A010E0E6E0CBE04EF0BF0C4
:1016000002EF0BF008EF0BF00B6C0C1ED8B00C2A9D
:101610000B500C10D8B40FEF0BF011EF0BF035EFAF
:101620000BF0010E0D6E19EF0BF0D8900B360C3647
:101630000D2A0CAE1EEF0BF020EF0BF015EF0BF0A8
:101640000B50095C0C500A58D8A029EF0BF02BEF77
:101650000BF02FEF0BF00B50095E0C500A5AD8908C
:101660000C320B320D2E20EF0BF00E50D8B43BEFA6
:101670000BF03DEF0BF041EF0BF0096C0A1ED8B0F8
:101680000A2A09C009F00AC00AF01200076E000E0B
:10169000086E829694888288000E096E828664ECB9
:1016A0000CF009500708056E82B859EF0BF05DEF9A
:1016B0000BF0066A062A5EEF0BF0066A052A63EF56
:1016C0000BF0D8900636052E61EF0BF0065008128D
:1016D0008296092A070E096470EF0BF072EF0BF087
:1016E0004EEF0BF094980750D8B479EF0BF07BEFE6
:1016F0000BF07EEF0BF082987FEF0BF0828864ECAA
:101700000CF0828664EC0CF0829608501200086E91
:1017100083CF07F0000E956E000E026E220E016E52
:10172000000E046E000E036E84EC07F008C083FF09
:10173000000E026E210E016E000E046E010E036E8D
:1017400084EC07F0000E026E210E016E000E046E96
:10175000000E036E84EC07F007C083FF020E08182A
:10176000D8B4B5EF0BF0B7EF0BF0BFEF0BF00804F8
:10177000D8A4BDEF0BF0BFEF0BF0C3EF0BF065EC9F
:101780000DF0C5EF0BF073EC0DF01200000E026EC1
:10179000220E016E000E046E000E036E5DEC06F06C
:1017A000000E026E210E016E000E046E000E036E1E
:1017B0005DEC06F0000E956E65EC0DF065EC0DF03D
:1017C00065EC0DF065EC0DF065EC0DF0380E87EC76
:1017D0000BF065EC0DF065EC0DF0380E87EC0BF0BE
:1017E00065EC0DF0380E87EC0BF0380E87EC0BF043
:1017F000060E87EC0BF00C0E87EC0BF0010E87EC5D
:101800000BF01200000E046E000E036E28EF0CF0B9
:10181000000E056E280E056410EF0CF012EF0CF0B0
:1018200014EF0CF026EF0CF0000E066E020E0664AC
:101830001CEF0CF01EEF0CF020EF0CF023EF0CF07F
:10184000062A16EF0CF0052A0AEF0CF0034A042AC8
:101850000150035C02500458D8A031EF0CF033EF74
:101860000CF008EF0CF01200860EF66E1A0EF76EF2
:10187000000EF86E00EE80F010EE43F00900F5CF98
:10188000EEFFE550E150FAE1640EF66E1B0EF76EC6
:10189000000EF86E0900F5CF7BF00900F5CF7CF063
:1018A0000900F5CF7DF000EEC3F0140EEE6AE806F5
:1018B000FDE100EE6FF00C0EEE6AE806FDE1000EB1
:1018C000F86E000109EF03F0000E026E000E016ECB
:1018D000000E036E280E036470EF0CF072EF0CF034
:1018E00074EF0CF086EF0CF0000E046E020E046430
:1018F0007CEF0CF07EEF0CF080EF0CF083EF0CF03F
:10190000042A76EF0CF0032A6AEF0CF0014A022A4F
:10191000025009E1050E015CD8A091EF0CF093EFA5
:101920000CF068EF0CF01200076E8296000E086E45
:1019300008500708056E07C006F0052AA2EF0CF054
:10194000D8900632052EA0EF0CF0010E0616063ACE
:1019500082500618EF0B0618826E828664EC0CF03B
:101960008296082A070E0864B8EF0CF0BAEF0CF064
:1019700098EF0CF0828864EC0CF0828664EC0CF03A
:1019800082961200026E0150D8A4C9EF0CF0CBEF82
:101990000CF0CDEF0CF002C079F00104D8A4D3EF25
:1019A0000CF0D5EF0CF0D7EF0CF002C078F0020E7F
:1019B0000118D8A4DEEF0CF0E0EF0CF0E2EF0CF031
:1019C00002C077F0030E0118D8A4E9EF0CF0EBEF9A
:1019D0000CF0EDEF0CF002C076F01200000E026E7B
:1019E000020E016E000E046E000E036E5DEC06F03A
:1019F000000E026E030E016E000E046E000E036EEA
:101A00005DEC06F0000E026E040E016E000E046E18
:101A1000000E036E5DEC06F0000E026E050E016E08
:101A2000000E046E000E036E5DEC06F0000E956E67
:101A30001200076E83CF08F0000E956E000E026E46
:101A4000220E016E000E046E010E036E84EC07F090
:101A500007C083FF000E026E210E016E000E046EA1
:101A6000010E036E84EC07F0000E026E210E016E73
:101A7000000E046E000E036E84EC07F008C083FFB6
:101A800073EC0DF01200332D2043726F6E6F6D6595
:101A900074726F20000000000000000000007365F9
:101AA0006A612062656D2076696E646F00312D2059
:101AB000426174696D656E746F342D20686F726158
:091AC00073322D20506173736F25
:101ACA00000E026E73EC0DF0022A310E026470EF02
:101ADA000DF072EF0DF067EF0DF01200000E016EBF
:101AEA00012A180E01647CEF0DF07EEF0DF075EF00
:101AFA000DF0120094929494030ECA12CA840C0E2A
:101B0A00BD120C0EBA1212008286829864EC0CF096
:101B1A00828864EC0CF012008286828864EC0CF0F5
:101B2A00829864EC0CF01200016E01380F0B0F0B57
:101B3A00300F1200016E01500F0B300F120073C0EC
:101B4A0001F074C002F01200070E93160F0E9512E0
:0D1B5A001200949882868288120062706DDD
:020000040020DA
:08000000FFFFFFFFFFFFFFFF00
:020000040030CA
:0E000000FF027100FF8380FF0FC00FE00F4072
:00000001FF
